{
  "_format": "hh-sol-artifact-1",
  "contractName": "SimplePurchase",
  "sourceName": "contracts/SimplePurchase.sol",
  "abi": [
    {
      "inputs": [
        {
          "internalType": "address payable",
          "name": "_seller",
          "type": "address"
        }
      ],
      "stateMutability": "payable",
      "type": "constructor"
    },
    {
      "inputs": [],
      "name": "buyer",
      "outputs": [
        {
          "internalType": "address",
          "name": "",
          "type": "address"
        }
      ],
      "stateMutability": "view",
      "type": "function"
    },
    {
      "inputs": [],
      "name": "confirmDelivery",
      "outputs": [],
      "stateMutability": "nonpayable",
      "type": "function"
    },
    {
      "inputs": [],
      "name": "getBalance",
      "outputs": [
        {
          "internalType": "uint256",
          "name": "",
          "type": "uint256"
        }
      ],
      "stateMutability": "view",
      "type": "function"
    },
    {
      "inputs": [],
      "name": "isCompleted",
      "outputs": [
        {
          "internalType": "bool",
          "name": "",
          "type": "bool"
        }
      ],
      "stateMutability": "view",
      "type": "function"
    },
    {
      "inputs": [],
      "name": "seller",
      "outputs": [
        {
          "internalType": "address payable",
          "name": "",
          "type": "address"
        }
      ],
      "stateMutability": "view",
      "type": "function"
    }
  ],
  "bytecode": "0x60806040526040516107913803806107918339818101604052810190610025919061012a565b336000806101000a81548173ffffffffffffffffffffffffffffffffffffffff021916908373ffffffffffffffffffffffffffffffffffffffff16021790555080600160006101000a81548173ffffffffffffffffffffffffffffffffffffffff021916908373ffffffffffffffffffffffffffffffffffffffff1602179055506000600160146101000a81548160ff02191690831515021790555050610157565b600080fd5b600073ffffffffffffffffffffffffffffffffffffffff82169050919050565b60006100f7826100cc565b9050919050565b610107816100ec565b811461011257600080fd5b50565b600081519050610124816100fe565b92915050565b6000602082840312156101405761013f6100c7565b5b600061014e84828501610115565b91505092915050565b61062b806101666000396000f3fe608060405234801561001057600080fd5b50600436106100575760003560e01c806308551a531461005c57806312065fe01461007a5780635e10177b146100985780637150d8ae146100a2578063fa391c64146100c0575b600080fd5b6100646100de565b604051610071919061034d565b60405180910390f35b610082610104565b60405161008f9190610381565b60405180910390f35b6100a061010c565b005b6100aa6102d5565b6040516100b791906103bd565b60405180910390f35b6100c86102f9565b6040516100d591906103f3565b60405180910390f35b600160009054906101000a900473ffffffffffffffffffffffffffffffffffffffff1681565b600047905090565b60008054906101000a900473ffffffffffffffffffffffffffffffffffffffff1673ffffffffffffffffffffffffffffffffffffffff163373ffffffffffffffffffffffffffffffffffffffff161461019a576040517f08c379a000000000000000000000000000000000000000000000000000000000815260040161019190610491565b60405180910390fd5b600160149054906101000a900460ff16156101ea576040517f08c379a00000000000000000000000000000000000000000000000000000000081526004016101e190610523565b60405180910390fd5b60018060146101000a81548160ff0219169083151502179055506000600160009054906101000a900473ffffffffffffffffffffffffffffffffffffffff1673ffffffffffffffffffffffffffffffffffffffff164760405161024c90610574565b60006040518083038185875af1925050503d8060008114610289576040519150601f19603f3d011682016040523d82523d6000602084013e61028e565b606091505b50509050806102d2576040517f08c379a00000000000000000000000000000000000000000000000000000000081526004016102c9906105d5565b60405180910390fd5b50565b60008054906101000a900473ffffffffffffffffffffffffffffffffffffffff1681565b600160149054906101000a900460ff1681565b600073ffffffffffffffffffffffffffffffffffffffff82169050919050565b60006103378261030c565b9050919050565b6103478161032c565b82525050565b6000602082019050610362600083018461033e565b92915050565b6000819050919050565b61037b81610368565b82525050565b60006020820190506103966000830184610372565b92915050565b60006103a78261030c565b9050919050565b6103b78161039c565b82525050565b60006020820190506103d260008301846103ae565b92915050565b60008115159050919050565b6103ed816103d8565b82525050565b600060208201905061040860008301846103e4565b92915050565b600082825260208201905092915050565b7f4572726f723a204f6e6c79207468652062757965722063616e20636f6e66697260008201527f6d2064656c69766572792e000000000000000000000000000000000000000000602082015250565b600061047b602b8361040e565b91506104868261041f565b604082019050919050565b600060208201905081810360008301526104aa8161046e565b9050919050565b7f4572726f723a2054686973207472616e73616374696f6e20697320616c72656160008201527f647920636f6d706c657465642e00000000000000000000000000000000000000602082015250565b600061050d602d8361040e565b9150610518826104b1565b604082019050919050565b6000602082019050818103600083015261053c81610500565b9050919050565b600081905092915050565b50565b600061055e600083610543565b91506105698261054e565b600082019050919050565b600061057f82610551565b9150819050919050565b7f5472616e73666572206661696c65642e00000000000000000000000000000000600082015250565b60006105bf60108361040e565b91506105ca82610589565b602082019050919050565b600060208201905081810360008301526105ee816105b2565b905091905056fea264697066735822122025907c9528d58ff3669305d0405ef7732dfb8df9dedebef6d6e58130ca4f629164736f6c63430008140033",
  "linkReferences": {},
  "deployedLinkReferences": {}
}