{
  "_format": "hh-sol-artifact-1",
  "contractName": "ECommerceMarketplace",
  "sourceName": "contracts/ECommerceMarketplace.sol",
  "abi": [
    {
      "anonymous": false,
      "inputs": [
        {
          "indexed": false,
          "internalType": "uint256",
          "name": "id",
          "type": "uint256"
        },
        {
          "indexed": false,
          "internalType": "address",
          "name": "seller",
          "type": "address"
        }
      ],
      "name": "ProductDelivered",
      "type": "event"
    },
    {
      "anonymous": false,
      "inputs": [
        {
          "indexed": false,
          "internalType": "uint256",
          "name": "id",
          "type": "uint256"
        },
        {
          "indexed": false,
          "internalType": "string",
          "name": "name",
          "type": "string"
        },
        {
          "indexed": false,
          "internalType": "uint256",
          "name": "price",
          "type": "uint256"
        },
        {
          "indexed": false,
          "internalType": "address",
          "name": "seller",
          "type": "address"
        }
      ],
      "name": "ProductListed",
      "type": "event"
    },
    {
      "anonymous": false,
      "inputs": [
        {
          "indexed": false,
          "internalType": "uint256",
          "name": "id",
          "type": "uint256"
        },
        {
          "indexed": false,
          "internalType": "address",
          "name": "buyer",
          "type": "address"
        }
      ],
      "name": "ProductPurchased",
      "type": "event"
    },
    {
      "inputs": [
        {
          "internalType": "uint256",
          "name": "_id",
          "type": "uint256"
        }
      ],
      "name": "buyProduct",
      "outputs": [],
      "stateMutability": "payable",
      "type": "function"
    },
    {
      "inputs": [
        {
          "internalType": "uint256",
          "name": "_id",
          "type": "uint256"
        }
      ],
      "name": "confirmDelivery",
      "outputs": [],
      "stateMutability": "nonpayable",
      "type": "function"
    },
    {
      "inputs": [
        {
          "internalType": "string",
          "name": "_name",
          "type": "string"
        },
        {
          "internalType": "string",
          "name": "_imageHash",
          "type": "string"
        },
        {
          "internalType": "uint256",
          "name": "_price",
          "type": "uint256"
        }
      ],
      "name": "listProduct",
      "outputs": [],
      "stateMutability": "nonpayable",
      "type": "function"
    },
    {
      "inputs": [],
      "name": "productCount",
      "outputs": [
        {
          "internalType": "uint256",
          "name": "",
          "type": "uint256"
        }
      ],
      "stateMutability": "view",
      "type": "function"
    },
    {
      "inputs": [
        {
          "internalType": "uint256",
          "name": "",
          "type": "uint256"
        }
      ],
      "name": "products",
      "outputs": [
        {
          "internalType": "uint256",
          "name": "id",
          "type": "uint256"
        },
        {
          "internalType": "string",
          "name": "name",
          "type": "string"
        },
        {
          "internalType": "string",
          "name": "imageHash",
          "type": "string"
        },
        {
          "internalType": "uint256",
          "name": "price",
          "type": "uint256"
        },
        {
          "internalType": "address payable",
          "name": "seller",
          "type": "address"
        },
        {
          "internalType": "address",
          "name": "buyer",
          "type": "address"
        },
        {
          "internalType": "bool",
          "name": "isPurchased",
          "type": "bool"
        },
        {
          "internalType": "bool",
          "name": "isDelivered",
          "type": "bool"
        }
      ],
      "stateMutability": "view",
      "type": "function"
    }
  ],
  "bytecode": "0x60806040526000805534801561001457600080fd5b50611d3e806100246000396000f3fe60806040526004361061004a5760003560e01c80636d6b77771461004f5780637acc0b20146100785780638642269e146100bc578063e0f6ef87146100d8578063fd84cb9714610103575b600080fd5b34801561005b57600080fd5b506100766004803603810190610071919061118c565b61012c565b005b34801561008457600080fd5b5061009f600480360381019061009a9190611217565b6103a2565b6040516100b398979695949392919061134f565b60405180910390f35b6100d660048036038101906100d19190611217565b610554565b005b3480156100e457600080fd5b506100ed610a92565b6040516100fa91906113db565b60405180910390f35b34801561010f57600080fd5b5061012a60048036038101906101259190611217565b610a98565b005b6000835111610170576040517f08c379a000000000000000000000000000000000000000000000000000000000815260040161016790611442565b60405180910390fd5b600081116101b3576040517f08c379a00000000000000000000000000000000000000000000000000000000081526004016101aa906114d4565b60405180910390fd5b6000808154809291906101c590611523565b919050555060405180610100016040528060005481526020018481526020018381526020018281526020013373ffffffffffffffffffffffffffffffffffffffff168152602001600073ffffffffffffffffffffffffffffffffffffffff16815260200160001515815260200160001515815250600160008054815260200190815260200160002060008201518160000155602082015181600101908161026c9190611777565b5060408201518160020190816102829190611777565b506060820151816003015560808201518160040160006101000a81548173ffffffffffffffffffffffffffffffffffffffff021916908373ffffffffffffffffffffffffffffffffffffffff16021790555060a08201518160050160006101000a81548173ffffffffffffffffffffffffffffffffffffffff021916908373ffffffffffffffffffffffffffffffffffffffff16021790555060c08201518160050160146101000a81548160ff02191690831515021790555060e08201518160050160156101000a81548160ff0219169083151502179055509050507f12f74df6387ef2d51265f7b8c12c28c83ba3a6a78ad217f3846ec9c2b1fad92f6000548483336040516103959493929190611849565b60405180910390a1505050565b60016020528060005260406000206000915090508060000154908060010180546103cb9061159a565b80601f01602080910402602001604051908101604052809291908181526020018280546103f79061159a565b80156104445780601f1061041957610100808354040283529160200191610444565b820191906000526020600020905b81548152906001019060200180831161042757829003601f168201915b5050505050908060020180546104599061159a565b80601f01602080910402602001604051908101604052809291908181526020018280546104859061159a565b80156104d25780601f106104a7576101008083540402835291602001916104d2565b820191906000526020600020905b8154815290600101906020018083116104b557829003601f168201915b5050505050908060030154908060040160009054906101000a900473ffffffffffffffffffffffffffffffffffffffff16908060050160009054906101000a900473ffffffffffffffffffffffffffffffffffffffff16908060050160149054906101000a900460ff16908060050160159054906101000a900460ff16905088565b600060016000838152602001908152602001600020604051806101000160405290816000820154815260200160018201805461058f9061159a565b80601f01602080910402602001604051908101604052809291908181526020018280546105bb9061159a565b80156106085780601f106105dd57610100808354040283529160200191610608565b820191906000526020600020905b8154815290600101906020018083116105eb57829003601f168201915b505050505081526020016002820180546106219061159a565b80601f016020809104026020016040519081016040528092919081815260200182805461064d9061159a565b801561069a5780601f1061066f5761010080835404028352916020019161069a565b820191906000526020600020905b81548152906001019060200180831161067d57829003601f168201915b50505050508152602001600382015481526020016004820160009054906101000a900473ffffffffffffffffffffffffffffffffffffffff1673ffffffffffffffffffffffffffffffffffffffff1673ffffffffffffffffffffffffffffffffffffffff1681526020016005820160009054906101000a900473ffffffffffffffffffffffffffffffffffffffff1673ffffffffffffffffffffffffffffffffffffffff1673ffffffffffffffffffffffffffffffffffffffff1681526020016005820160149054906101000a900460ff161515151581526020016005820160159054906101000a900460ff1615151515815250509050600081600001511180156107ab5750600054816000015111155b6107ea576040517f08c379a00000000000000000000000000000000000000000000000000000000081526004016107e1906118e1565b60405180910390fd5b8060c001511561082f576040517f08c379a00000000000000000000000000000000000000000000000000000000081526004016108269061194d565b60405180910390fd5b806080015173ffffffffffffffffffffffffffffffffffffffff163373ffffffffffffffffffffffffffffffffffffffff16036108a1576040517f08c379a0000000000000000000000000000000000000000000000000000000008152600401610898906119df565b60405180910390fd5b806060015134146108e7576040517f08c379a00000000000000000000000000000000000000000000000000000000081526004016108de90611a4b565b60405180910390fd5b338160a0019073ffffffffffffffffffffffffffffffffffffffff16908173ffffffffffffffffffffffffffffffffffffffff168152505060018160c001901515908115158152505080600160008481526020019081526020016000206000820151816000015560208201518160010190816109639190611777565b5060408201518160020190816109799190611777565b506060820151816003015560808201518160040160006101000a81548173ffffffffffffffffffffffffffffffffffffffff021916908373ffffffffffffffffffffffffffffffffffffffff16021790555060a08201518160050160006101000a81548173ffffffffffffffffffffffffffffffffffffffff021916908373ffffffffffffffffffffffffffffffffffffffff16021790555060c08201518160050160146101000a81548160ff02191690831515021790555060e08201518160050160156101000a81548160ff0219169083151502179055509050507f9ad4ecfaf27ea0cbeebee0ed92fe15c8a84975f1e3d45ccfc526d7751dcf98ff8233604051610a86929190611a6b565b60405180910390a15050565b60005481565b6000600160008381526020019081526020016000206040518061010001604052908160008201548152602001600182018054610ad39061159a565b80601f0160208091040260200160405190810160405280929190818152602001828054610aff9061159a565b8015610b4c5780601f10610b2157610100808354040283529160200191610b4c565b820191906000526020600020905b815481529060010190602001808311610b2f57829003601f168201915b50505050508152602001600282018054610b659061159a565b80601f0160208091040260200160405190810160405280929190818152602001828054610b919061159a565b8015610bde5780601f10610bb357610100808354040283529160200191610bde565b820191906000526020600020905b815481529060010190602001808311610bc157829003601f168201915b50505050508152602001600382015481526020016004820160009054906101000a900473ffffffffffffffffffffffffffffffffffffffff1673ffffffffffffffffffffffffffffffffffffffff1673ffffffffffffffffffffffffffffffffffffffff1681526020016005820160009054906101000a900473ffffffffffffffffffffffffffffffffffffffff1673ffffffffffffffffffffffffffffffffffffffff1673ffffffffffffffffffffffffffffffffffffffff1681526020016005820160149054906101000a900460ff161515151581526020016005820160159054906101000a900460ff16151515158152505090508060c00151610d19576040517f08c379a0000000000000000000000000000000000000000000000000000000008152600401610d1090611ae0565b60405180910390fd5b8060e0015115610d5e576040517f08c379a0000000000000000000000000000000000000000000000000000000008152600401610d5590611b4c565b60405180910390fd5b8060a0015173ffffffffffffffffffffffffffffffffffffffff163373ffffffffffffffffffffffffffffffffffffffff1614610dd0576040517f08c379a0000000000000000000000000000000000000000000000000000000008152600401610dc790611bb8565b60405180910390fd5b60018160e00190151590811515815250508060016000848152602001908152602001600020600082015181600001556020820151816001019081610e149190611777565b506040820151816002019081610e2a9190611777565b506060820151816003015560808201518160040160006101000a81548173ffffffffffffffffffffffffffffffffffffffff021916908373ffffffffffffffffffffffffffffffffffffffff16021790555060a08201518160050160006101000a81548173ffffffffffffffffffffffffffffffffffffffff021916908373ffffffffffffffffffffffffffffffffffffffff16021790555060c08201518160050160146101000a81548160ff02191690831515021790555060e08201518160050160156101000a81548160ff0219169083151502179055509050506000816080015173ffffffffffffffffffffffffffffffffffffffff168260600151604051610f3490611c09565b60006040518083038185875af1925050503d8060008114610f71576040519150601f19603f3d011682016040523d82523d6000602084013e610f76565b606091505b5050905080610fba576040517f08c379a0000000000000000000000000000000000000000000000000000000008152600401610fb190611c6a565b60405180910390fd5b7f3b9a2bc92f86b656bcb1ebf7bae17a2692a817afab798105a68a61b76220b76e838360800151604051610fef929190611cdf565b60405180910390a1505050565b6000604051905090565b600080fd5b600080fd5b600080fd5b600080fd5b6000601f19601f8301169050919050565b7f4e487b7100000000000000000000000000000000000000000000000000000000600052604160045260246000fd5b6110638261101a565b810181811067ffffffffffffffff821117156110825761108161102b565b5b80604052505050565b6000611095610ffc565b90506110a1828261105a565b919050565b600067ffffffffffffffff8211156110c1576110c061102b565b5b6110ca8261101a565b9050602081019050919050565b82818337600083830152505050565b60006110f96110f4846110a6565b61108b565b90508281526020810184848401111561111557611114611015565b5b6111208482856110d7565b509392505050565b600082601f83011261113d5761113c611010565b5b813561114d8482602086016110e6565b91505092915050565b6000819050919050565b61116981611156565b811461117457600080fd5b50565b60008135905061118681611160565b92915050565b6000806000606084860312156111a5576111a4611006565b5b600084013567ffffffffffffffff8111156111c3576111c261100b565b5b6111cf86828701611128565b935050602084013567ffffffffffffffff8111156111f0576111ef61100b565b5b6111fc86828701611128565b925050604061120d86828701611177565b9150509250925092565b60006020828403121561122d5761122c611006565b5b600061123b84828501611177565b91505092915050565b61124d81611156565b82525050565b600081519050919050565b600082825260208201905092915050565b60005b8381101561128d578082015181840152602081019050611272565b60008484015250505050565b60006112a482611253565b6112ae818561125e565b93506112be81856020860161126f565b6112c78161101a565b840191505092915050565b600073ffffffffffffffffffffffffffffffffffffffff82169050919050565b60006112fd826112d2565b9050919050565b61130d816112f2565b82525050565b600061131e826112d2565b9050919050565b61132e81611313565b82525050565b60008115159050919050565b61134981611334565b82525050565b600061010082019050611365600083018b611244565b8181036020830152611377818a611299565b9050818103604083015261138b8189611299565b905061139a6060830188611244565b6113a76080830187611304565b6113b460a0830186611325565b6113c160c0830185611340565b6113ce60e0830184611340565b9998505050505050505050565b60006020820190506113f06000830184611244565b92915050565b7f50726f64756374206e616d652069732072657175697265640000000000000000600082015250565b600061142c60188361125e565b9150611437826113f6565b602082019050919050565b6000602082019050818103600083015261145b8161141f565b9050919050565b7f50726f64756374207072696365206d757374206265206772656174657220746860008201527f616e207a65726f00000000000000000000000000000000000000000000000000602082015250565b60006114be60278361125e565b91506114c982611462565b604082019050919050565b600060208201905081810360008301526114ed816114b1565b9050919050565b7f4e487b7100000000000000000000000000000000000000000000000000000000600052601160045260246000fd5b600061152e82611156565b91507fffffffffffffffffffffffffffffffffffffffffffffffffffffffffffffffff82036115605761155f6114f4565b5b600182019050919050565b7f4e487b7100000000000000000000000000000000000000000000000000000000600052602260045260246000fd5b600060028204905060018216806115b257607f821691505b6020821081036115c5576115c461156b565b5b50919050565b60008190508160005260206000209050919050565b60006020601f8301049050919050565b600082821b905092915050565b60006008830261162d7fffffffffffffffffffffffffffffffffffffffffffffffffffffffffffffffff826115f0565b61163786836115f0565b95508019841693508086168417925050509392505050565b6000819050919050565b600061167461166f61166a84611156565b61164f565b611156565b9050919050565b6000819050919050565b61168e83611659565b6116a261169a8261167b565b8484546115fd565b825550505050565b600090565b6116b76116aa565b6116c2818484611685565b505050565b5b818110156116e6576116db6000826116af565b6001810190506116c8565b5050565b601f82111561172b576116fc816115cb565b611705846115e0565b81016020851015611714578190505b611728611720856115e0565b8301826116c7565b50505b505050565b600082821c905092915050565b600061174e60001984600802611730565b1980831691505092915050565b6000611767838361173d565b9150826002028217905092915050565b61178082611253565b67ffffffffffffffff8111156117995761179861102b565b5b6117a3825461159a565b6117ae8282856116ea565b600060209050601f8311600181146117e157600084156117cf578287015190505b6117d9858261175b565b865550611841565b601f1984166117ef866115cb565b60005b82811015611817578489015182556001820191506020850194506020810190506117f2565b868310156118345784890151611830601f89168261173d565b8355505b6001600288020188555050505b505050505050565b600060808201905061185e6000830187611244565b81810360208301526118708186611299565b905061187f6040830185611244565b61188c6060830184611325565b95945050505050565b7f50726f6475637420646f6573206e6f7420657869737400000000000000000000600082015250565b60006118cb60168361125e565b91506118d682611895565b602082019050919050565b600060208201905081810360008301526118fa816118be565b9050919050565b7f50726f6475637420616c72656164792070757263686173656400000000000000600082015250565b600061193760198361125e565b915061194282611901565b602082019050919050565b600060208201905081810360008301526119668161192a565b9050919050565b7f53656c6c65722063616e6e6f7420627579207468656972206f776e2070726f6460008201527f7563740000000000000000000000000000000000000000000000000000000000602082015250565b60006119c960238361125e565b91506119d48261196d565b604082019050919050565b600060208201905081810360008301526119f8816119bc565b9050919050565b7f506c65617365207375626d697420746865206578616374207072696365000000600082015250565b6000611a35601d8361125e565b9150611a40826119ff565b602082019050919050565b60006020820190508181036000830152611a6481611a28565b9050919050565b6000604082019050611a806000830185611244565b611a8d6020830184611325565b9392505050565b7f50726f6475637420686173206e6f74206265656e207075726368617365640000600082015250565b6000611aca601e8361125e565b9150611ad582611a94565b602082019050919050565b60006020820190508181036000830152611af981611abd565b9050919050565b7f50726f6475637420616c72656164792064656c69766572656400000000000000600082015250565b6000611b3660198361125e565b9150611b4182611b00565b602082019050919050565b60006020820190508181036000830152611b6581611b29565b9050919050565b7f4f6e6c792062757965722063616e20636f6e6669726d2064656c697665727900600082015250565b6000611ba2601f8361125e565b9150611bad82611b6c565b602082019050919050565b60006020820190508181036000830152611bd181611b95565b9050919050565b600081905092915050565b50565b6000611bf3600083611bd8565b9150611bfe82611be3565b600082019050919050565b6000611c1482611be6565b9150819050919050565b7f5472616e7366657220746f2073656c6c6572206661696c656400000000000000600082015250565b6000611c5460198361125e565b9150611c5f82611c1e565b602082019050919050565b60006020820190508181036000830152611c8381611c47565b9050919050565b6000611ca5611ca0611c9b846112d2565b61164f565b6112d2565b9050919050565b6000611cb782611c8a565b9050919050565b6000611cc982611cac565b9050919050565b611cd981611cbe565b82525050565b6000604082019050611cf46000830185611244565b611d016020830184611cd0565b939250505056fea26469706673582212204d384099a16910e2d259be4a0d6fe0bfb8165ffe8f05bcf9da8759c82b56982c64736f6c63430008140033",
  "linkReferences": {},
  "deployedLinkReferences": {}
}