{
  "_format": "hh-sol-artifact-1",
  "contractName": "Escrow",
  "sourceName": "contracts/Escrow.sol",
  "abi": [
    {
      "inputs": [
        {
          "internalType": "address payable",
          "name": "_seller",
          "type": "address"
        },
        {
          "internalType": "address",
          "name": "_buyer",
          "type": "address"
        },
        {
          "internalType": "uint256",
          "name": "_price",
          "type": "uint256"
        }
      ],
      "stateMutability": "nonpayable",
      "type": "constructor"
    },
    {
      "inputs": [],
      "name": "admin",
      "outputs": [
        {
          "internalType": "address",
          "name": "",
          "type": "address"
        }
      ],
      "stateMutability": "view",
      "type": "function"
    },
    {
      "inputs": [],
      "name": "buyer",
      "outputs": [
        {
          "internalType": "address",
          "name": "",
          "type": "address"
        }
      ],
      "stateMutability": "view",
      "type": "function"
    },
    {
      "inputs": [],
      "name": "isClosed",
      "outputs": [
        {
          "internalType": "bool",
          "name": "",
          "type": "bool"
        }
      ],
      "stateMutability": "view",
      "type": "function"
    },
    {
      "inputs": [],
      "name": "isFunded",
      "outputs": [
        {
          "internalType": "bool",
          "name": "",
          "type": "bool"
        }
      ],
      "stateMutability": "view",
      "type": "function"
    },
    {
      "inputs": [],
      "name": "price",
      "outputs": [
        {
          "internalType": "uint256",
          "name": "",
          "type": "uint256"
        }
      ],
      "stateMutability": "view",
      "type": "function"
    },
    {
      "inputs": [],
      "name": "releaseFunds",
      "outputs": [],
      "stateMutability": "nonpayable",
      "type": "function"
    },
    {
      "inputs": [],
      "name": "seller",
      "outputs": [
        {
          "internalType": "address payable",
          "name": "",
          "type": "address"
        }
      ],
      "stateMutability": "view",
      "type": "function"
    },
    {
      "stateMutability": "payable",
      "type": "receive"
    }
  ],
  "bytecode": "0x60806040523480156200001157600080fd5b5060405162000c6e38038062000c6e8339818101604052810190620000379190620001f3565b336000806101000a81548173ffffffffffffffffffffffffffffffffffffffff021916908373ffffffffffffffffffffffffffffffffffffffff16021790555082600160006101000a81548173ffffffffffffffffffffffffffffffffffffffff021916908373ffffffffffffffffffffffffffffffffffffffff16021790555081600260006101000a81548173ffffffffffffffffffffffffffffffffffffffff021916908373ffffffffffffffffffffffffffffffffffffffff160217905550806003819055505050506200024f565b600080fd5b600073ffffffffffffffffffffffffffffffffffffffff82169050919050565b60006200013b826200010e565b9050919050565b6200014d816200012e565b81146200015957600080fd5b50565b6000815190506200016d8162000142565b92915050565b600062000180826200010e565b9050919050565b620001928162000173565b81146200019e57600080fd5b50565b600081519050620001b28162000187565b92915050565b6000819050919050565b620001cd81620001b8565b8114620001d957600080fd5b50565b600081519050620001ed81620001c2565b92915050565b6000806000606084860312156200020f576200020e62000109565b5b60006200021f868287016200015c565b93505060206200023286828701620001a1565b92505060406200024586828701620001dc565b9150509250925092565b610a0f806200025f6000396000f3fe6080604052600436106100745760003560e01c80637c6543031161004e5780637c6543031461022b578063a035b1fe14610256578063c2b6b58c14610281578063f851a440146102ac576101b9565b806308551a53146101be57806369d89575146101e95780637150d8ae14610200576101b9565b366101b957600260009054906101000a900473ffffffffffffffffffffffffffffffffffffffff1673ffffffffffffffffffffffffffffffffffffffff163373ffffffffffffffffffffffffffffffffffffffff1614610109576040517f08c379a0000000000000000000000000000000000000000000000000000000008152600401610100906105e9565b60405180910390fd5b600354341461014d576040517f08c379a000000000000000000000000000000000000000000000000000000000815260040161014490610655565b60405180910390fd5b600460009054906101000a900460ff161561019d576040517f08c379a0000000000000000000000000000000000000000000000000000000008152600401610194906106c1565b60405180910390fd5b6001600460006101000a81548160ff0219169083151502179055005b600080fd5b3480156101ca57600080fd5b506101d36102d7565b6040516101e09190610722565b60405180910390f35b3480156101f557600080fd5b506101fe6102fd565b005b34801561020c57600080fd5b50610215610516565b604051610222919061075e565b60405180910390f35b34801561023757600080fd5b5061024061053c565b60405161024d9190610794565b60405180910390f35b34801561026257600080fd5b5061026b61054f565b60405161027891906107c8565b60405180910390f35b34801561028d57600080fd5b50610296610555565b6040516102a39190610794565b60405180910390f35b3480156102b857600080fd5b506102c1610568565b6040516102ce919061075e565b60405180910390f35b600160009054906101000a900473ffffffffffffffffffffffffffffffffffffffff1681565b60008054906101000a900473ffffffffffffffffffffffffffffffffffffffff1673ffffffffffffffffffffffffffffffffffffffff163373ffffffffffffffffffffffffffffffffffffffff161461038b576040517f08c379a00000000000000000000000000000000000000000000000000000000081526004016103829061082f565b60405180910390fd5b600460009054906101000a900460ff166103da576040517f08c379a00000000000000000000000000000000000000000000000000000000081526004016103d19061089b565b60405180910390fd5b600460019054906101000a900460ff161561042a576040517f08c379a000000000000000000000000000000000000000000000000000000000815260040161042190610907565b60405180910390fd5b6001600460016101000a81548160ff0219169083151502179055506000600160009054906101000a900473ffffffffffffffffffffffffffffffffffffffff1673ffffffffffffffffffffffffffffffffffffffff164760405161048d90610958565b60006040518083038185875af1925050503d80600081146104ca576040519150601f19603f3d011682016040523d82523d6000602084013e6104cf565b606091505b5050905080610513576040517f08c379a000000000000000000000000000000000000000000000000000000000815260040161050a906109b9565b60405180910390fd5b50565b600260009054906101000a900473ffffffffffffffffffffffffffffffffffffffff1681565b600460009054906101000a900460ff1681565b60035481565b600460019054906101000a900460ff1681565b60008054906101000a900473ffffffffffffffffffffffffffffffffffffffff1681565b600082825260208201905092915050565b7f4f6e6c792062757965722063616e2066756e6400000000000000000000000000600082015250565b60006105d360138361058c565b91506105de8261059d565b602082019050919050565b60006020820190508181036000830152610602816105c6565b9050919050565b7f4d7573742073656e642065786163742070726963650000000000000000000000600082015250565b600061063f60158361058c565b915061064a82610609565b602082019050919050565b6000602082019050818103600083015261066e81610632565b9050919050565b7f416c72656164792066756e646564000000000000000000000000000000000000600082015250565b60006106ab600e8361058c565b91506106b682610675565b602082019050919050565b600060208201905081810360008301526106da8161069e565b9050919050565b600073ffffffffffffffffffffffffffffffffffffffff82169050919050565b600061070c826106e1565b9050919050565b61071c81610701565b82525050565b60006020820190506107376000830184610713565b92915050565b6000610748826106e1565b9050919050565b6107588161073d565b82525050565b6000602082019050610773600083018461074f565b92915050565b60008115159050919050565b61078e81610779565b82525050565b60006020820190506107a96000830184610785565b92915050565b6000819050919050565b6107c2816107af565b82525050565b60006020820190506107dd60008301846107b9565b92915050565b7f4f6e6c792061646d696e2063616e2072656c656173652066756e647300000000600082015250565b6000610819601c8361058c565b9150610824826107e3565b602082019050919050565b600060208201905081810360008301526108488161080c565b9050919050565b7f4e6f742066756e64656420796574000000000000000000000000000000000000600082015250565b6000610885600e8361058c565b91506108908261084f565b602082019050919050565b600060208201905081810360008301526108b481610878565b9050919050565b7f416c726561647920636c6f736564000000000000000000000000000000000000600082015250565b60006108f1600e8361058c565b91506108fc826108bb565b602082019050919050565b60006020820190508181036000830152610920816108e4565b9050919050565b600081905092915050565b50565b6000610942600083610927565b915061094d82610932565b600082019050919050565b600061096382610935565b9150819050919050565b7f5472616e73666572206661696c65640000000000000000000000000000000000600082015250565b60006109a3600f8361058c565b91506109ae8261096d565b602082019050919050565b600060208201905081810360008301526109d281610996565b905091905056fea2646970667358221220d34e18ff31fe1ea417da538a12823315c50336b9c1c29800a042f1aef744212c64736f6c63430008140033",
  "linkReferences": {},
  "deployedLinkReferences": {}
}